{"abi":[{"type":"constructor","inputs":[{"name":"_usdcToken","type":"address","internalType":"address"},{"name":"_price","type":"uint256","internalType":"uint256"},{"name":"_duration","type":"uint256","internalType":"uint256"}],"stateMutability":"nonpayable"},{"type":"function","name":"expiry","inputs":[{"name":"","type":"address","internalType":"address"}],"outputs":[{"name":"","type":"uint256","internalType":"uint256"}],"stateMutability":"view"},{"type":"function","name":"isActive","inputs":[{"name":"user","type":"address","internalType":"address"}],"outputs":[{"name":"","type":"bool","internalType":"bool"}],"stateMutability":"view"},{"type":"function","name":"owner","inputs":[],"outputs":[{"name":"","type":"address","internalType":"address"}],"stateMutability":"view"},{"type":"function","name":"subscribe","inputs":[],"outputs":[],"stateMutability":"nonpayable"},{"type":"function","name":"subscriptionDuration","inputs":[],"outputs":[{"name":"","type":"uint256","internalType":"uint256"}],"stateMutability":"view"},{"type":"function","name":"subscriptionPrice","inputs":[],"outputs":[{"name":"","type":"uint256","internalType":"uint256"}],"stateMutability":"view"},{"type":"function","name":"updateSubscriptionDuration","inputs":[{"name":"newDuration","type":"uint256","internalType":"uint256"}],"outputs":[],"stateMutability":"nonpayable"},{"type":"function","name":"updateSubscriptionPrice","inputs":[{"name":"newPrice","type":"uint256","internalType":"uint256"}],"outputs":[],"stateMutability":"nonpayable"},{"type":"function","name":"usdcToken","inputs":[],"outputs":[{"name":"","type":"address","internalType":"contract IERC20"}],"stateMutability":"view"},{"type":"function","name":"withdraw","inputs":[],"outputs":[],"stateMutability":"nonpayable"},{"type":"event","name":"Subscribed","inputs":[{"name":"subscriber","type":"address","indexed":true,"internalType":"address"},{"name":"expiryTimestamp","type":"uint256","indexed":false,"internalType":"uint256"},{"name":"amount","type":"uint256","indexed":false,"internalType":"uint256"}],"anonymous":false},{"type":"event","name":"SubscriptionDurationUpdated","inputs":[{"name":"oldDuration","type":"uint256","indexed":false,"internalType":"uint256"},{"name":"newDuration","type":"uint256","indexed":false,"internalType":"uint256"}],"anonymous":false},{"type":"event","name":"SubscriptionPriceUpdated","inputs":[{"name":"oldPrice","type":"uint256","indexed":false,"internalType":"uint256"},{"name":"newPrice","type":"uint256","indexed":false,"internalType":"uint256"}],"anonymous":false},{"type":"event","name":"Withdrawn","inputs":[{"name":"owner","type":"address","indexed":true,"internalType":"address"},{"name":"amount","type":"uint256","indexed":false,"internalType":"uint256"}],"anonymous":false}],"bytecode":{"object":"0x608060405234801561000f575f5ffd5b5060405161104c38038061104c83398181016040528101906100319190610157565b335f5f6101000a81548173ffffffffffffffffffffffffffffffffffffffff021916908373ffffffffffffffffffffffffffffffffffffffff1602179055508260015f6101000a81548173ffffffffffffffffffffffffffffffffffffffff021916908373ffffffffffffffffffffffffffffffffffffffff16021790555081600281905550806003819055505050506101a7565b5f5ffd5b5f73ffffffffffffffffffffffffffffffffffffffff82169050919050565b5f6100f3826100ca565b9050919050565b610103816100e9565b811461010d575f5ffd5b50565b5f8151905061011e816100fa565b92915050565b5f819050919050565b61013681610124565b8114610140575f5ffd5b50565b5f815190506101518161012d565b92915050565b5f5f5f6060848603121561016e5761016d6100c6565b5b5f61017b86828701610110565b935050602061018c86828701610143565b925050604061019d86828701610143565b9150509250925092565b610e98806101b45f395ff3fe608060405234801561000f575f5ffd5b506004361061009c575f3560e01c80637a94a633116100645780637a94a633146101305780638da5cb5b1461014e5780638f449a051461016c5780639f8a13d714610176578063bdc8e54c146101a65761009c565b806304c9927b146100a057806311eac855146100bc57806324a0f523146100da5780633a32e9361461010a5780633ccfd60b14610126575b5f5ffd5b6100ba60048036038101906100b59190610994565b6101c4565b005b6100c461029c565b6040516100d19190610a39565b60405180910390f35b6100f460048036038101906100ef9190610a8d565b6102c1565b6040516101019190610ac7565b60405180910390f35b610124600480360381019061011f9190610994565b6102d6565b005b61012e6103ae565b005b610138610686565b6040516101459190610ac7565b60405180910390f35b61015661068c565b6040516101639190610aef565b60405180910390f35b6101746106b0565b005b610190600480360381019061018b9190610a8d565b61090f565b60405161019d9190610b22565b60405180910390f35b6101ae610957565b6040516101bb9190610ac7565b60405180910390f35b5f5f9054906101000a900473ffffffffffffffffffffffffffffffffffffffff1673ffffffffffffffffffffffffffffffffffffffff163373ffffffffffffffffffffffffffffffffffffffff1614610252576040517f08c379a000000000000000000000000000000000000000000000000000000000815260040161024990610b95565b60405180910390fd5b5f6003549050816003819055507f272bfd7d72640b15a6d7d218b5af326b5d647a683e70ceb816971cca55ff319b8183604051610290929190610bb3565b60405180910390a15050565b60015f9054906101000a900473ffffffffffffffffffffffffffffffffffffffff1681565b6004602052805f5260405f205f915090505481565b5f5f9054906101000a900473ffffffffffffffffffffffffffffffffffffffff1673ffffffffffffffffffffffffffffffffffffffff163373ffffffffffffffffffffffffffffffffffffffff1614610364576040517f08c379a000000000000000000000000000000000000000000000000000000000815260040161035b90610b95565b60405180910390fd5b5f6002549050816002819055507ff68b6199a6c7e5df3005a4142808bc836237ab35986a197b454750d532b5680681836040516103a2929190610bb3565b60405180910390a15050565b5f5f9054906101000a900473ffffffffffffffffffffffffffffffffffffffff1673ffffffffffffffffffffffffffffffffffffffff163373ffffffffffffffffffffffffffffffffffffffff161461043c576040517f08c379a000000000000000000000000000000000000000000000000000000000815260040161043390610b95565b60405180910390fd5b5f60015f9054906101000a900473ffffffffffffffffffffffffffffffffffffffff1673ffffffffffffffffffffffffffffffffffffffff166370a08231306040518263ffffffff1660e01b81526004016104979190610aef565b602060405180830381865afa1580156104b2573d5f5f3e3d5ffd5b505050506040513d601f19601f820116820180604052508101906104d69190610bee565b90505f811161051a576040517f08c379a000000000000000000000000000000000000000000000000000000000815260040161051190610c63565b60405180910390fd5b60015f9054906101000a900473ffffffffffffffffffffffffffffffffffffffff1673ffffffffffffffffffffffffffffffffffffffff1663a9059cbb5f5f9054906101000a900473ffffffffffffffffffffffffffffffffffffffff16836040518363ffffffff1660e01b8152600401610596929190610c81565b6020604051808303815f875af11580156105b2573d5f5f3e3d5ffd5b505050506040513d601f19601f820116820180604052508101906105d69190610cd2565b610615576040517f08c379a000000000000000000000000000000000000000000000000000000000815260040161060c90610d47565b60405180910390fd5b5f5f9054906101000a900473ffffffffffffffffffffffffffffffffffffffff1673ffffffffffffffffffffffffffffffffffffffff167f7084f5476618d8e60b11ef0d7d3f06914655adb8793e28ff7f018d4c76d505d58260405161067b9190610ac7565b60405180910390a250565b60035481565b5f5f9054906101000a900473ffffffffffffffffffffffffffffffffffffffff1681565b60015f9054906101000a900473ffffffffffffffffffffffffffffffffffffffff1673ffffffffffffffffffffffffffffffffffffffff166323b872dd33306002546040518463ffffffff1660e01b815260040161071093929190610d65565b6020604051808303815f875af115801561072c573d5f5f3e3d5ffd5b505050506040513d601f19601f820116820180604052508101906107509190610cd2565b61078f576040517f08c379a000000000000000000000000000000000000000000000000000000000815260040161078690610de4565b60405180910390fd5b4260045f3373ffffffffffffffffffffffffffffffffffffffff1673ffffffffffffffffffffffffffffffffffffffff1681526020019081526020015f2054111561082e5760035460045f3373ffffffffffffffffffffffffffffffffffffffff1673ffffffffffffffffffffffffffffffffffffffff1681526020019081526020015f205f8282546108229190610e2f565b9250508190555061087e565b6003544261083c9190610e2f565b60045f3373ffffffffffffffffffffffffffffffffffffffff1673ffffffffffffffffffffffffffffffffffffffff1681526020019081526020015f20819055505b3373ffffffffffffffffffffffffffffffffffffffff167ff94991dcbea6e8ac439cbc93bd9c62a4d39f04e0ad656df9a703f13552c2787f60045f3373ffffffffffffffffffffffffffffffffffffffff1673ffffffffffffffffffffffffffffffffffffffff1681526020019081526020015f2054600254604051610905929190610bb3565b60405180910390a2565b5f4260045f8473ffffffffffffffffffffffffffffffffffffffff1673ffffffffffffffffffffffffffffffffffffffff1681526020019081526020015f2054119050919050565b60025481565b5f5ffd5b5f819050919050565b61097381610961565b811461097d575f5ffd5b50565b5f8135905061098e8161096a565b92915050565b5f602082840312156109a9576109a861095d565b5b5f6109b684828501610980565b91505092915050565b5f73ffffffffffffffffffffffffffffffffffffffff82169050919050565b5f819050919050565b5f610a016109fc6109f7846109bf565b6109de565b6109bf565b9050919050565b5f610a12826109e7565b9050919050565b5f610a2382610a08565b9050919050565b610a3381610a19565b82525050565b5f602082019050610a4c5f830184610a2a565b92915050565b5f610a5c826109bf565b9050919050565b610a6c81610a52565b8114610a76575f5ffd5b50565b5f81359050610a8781610a63565b92915050565b5f60208284031215610aa257610aa161095d565b5b5f610aaf84828501610a79565b91505092915050565b610ac181610961565b82525050565b5f602082019050610ada5f830184610ab8565b92915050565b610ae981610a52565b82525050565b5f602082019050610b025f830184610ae0565b92915050565b5f8115159050919050565b610b1c81610b08565b82525050565b5f602082019050610b355f830184610b13565b92915050565b5f82825260208201905092915050565b7f4e6f74206f776e657200000000000000000000000000000000000000000000005f82015250565b5f610b7f600983610b3b565b9150610b8a82610b4b565b602082019050919050565b5f6020820190508181035f830152610bac81610b73565b9050919050565b5f604082019050610bc65f830185610ab8565b610bd36020830184610ab8565b9392505050565b5f81519050610be88161096a565b92915050565b5f60208284031215610c0357610c0261095d565b5b5f610c1084828501610bda565b91505092915050565b7f4e6f2062616c616e6365000000000000000000000000000000000000000000005f82015250565b5f610c4d600a83610b3b565b9150610c5882610c19565b602082019050919050565b5f6020820190508181035f830152610c7a81610c41565b9050919050565b5f604082019050610c945f830185610ae0565b610ca16020830184610ab8565b9392505050565b610cb181610b08565b8114610cbb575f5ffd5b50565b5f81519050610ccc81610ca8565b92915050565b5f60208284031215610ce757610ce661095d565b5b5f610cf484828501610cbe565b91505092915050565b7f5769746864726177207472616e73666572206661696c656400000000000000005f82015250565b5f610d31601883610b3b565b9150610d3c82610cfd565b602082019050919050565b5f6020820190508181035f830152610d5e81610d25565b9050919050565b5f606082019050610d785f830186610ae0565b610d856020830185610ae0565b610d926040830184610ab8565b949350505050565b7f5061796d656e74206661696c65640000000000000000000000000000000000005f82015250565b5f610dce600e83610b3b565b9150610dd982610d9a565b602082019050919050565b5f6020820190508181035f830152610dfb81610dc2565b9050919050565b7f4e487b71000000000000000000000000000000000000000000000000000000005f52601160045260245ffd5b5f610e3982610961565b9150610e4483610961565b9250828201905080821115610e5c57610e5b610e02565b5b9291505056fea2646970667358221220f9ec0eaedd201c01018144e6c210c1ee557b365376a367d6f8ba7e08811c16be64736f6c634300081e0033","linkReferences":{}},"methodIdentifiers":{"expiry(address)":"24a0f523","isActive(address)":"9f8a13d7","owner()":"8da5cb5b","subscribe()":"8f449a05","subscriptionDuration()":"7a94a633","subscriptionPrice()":"bdc8e54c","updateSubscriptionDuration(uint256)":"04c9927b","updateSubscriptionPrice(uint256)":"3a32e936","usdcToken()":"11eac855","withdraw()":"3ccfd60b"},"id":0}